:020000040800F2
:100000000000052009210008BD240008BF240008C5
:10001000C1240008C3240008C52400080000000013
:10002000000000000000000000000000C7240008DD
:10003000C924000800000000CB240008CD240008DB
:1000400059210008592100085921000859210008A8
:100050005921000859210008592100085921000898
:100060005921000859210008592100085921000888
:100070005921000859210008592100085921000878
:100080005921000859210008592100085921000868
:100090005921000859210008592100085921000858
:1000A0005921000859210008592100085921000848
:1000B0005921000859210008592100085921000838
:1000C0005921000859210008592100085921000828
:1000D0005921000859210008592100085921000818
:1000E0005921000859210008592100085921000808
:1000F00059210008592100085921000859210008F8
:1001000059210008592100085921000859210008E7
:1001100059210008592100085921000859210008D7
:10012000E9240008DD2400085921000859210008AD
:1001300059210008592100085921000859210008B7
:1001400059210008592100085921000859210008A7
:10015000F5240008592100085921000859210008F8
:100160005921000859210008592100085921000887
:1001700059210008D124000859210008000000007E
:100180005921000859210008592100085921000867
:100190005921000859210008592100085921000857
:1001A0005921000859210008592100085921000847
:1001B0005921000859210008592100085921000837
:1001C0005921000859210008592100085921000827
:1001D0005921000859210008592100085921000817
:1001E0005921000859210008592100085921000807
:0801F000592100085921000803
:1001F80010B5054C237833B9044B13B10448AFF359
:1002080000800123237010BDC401002000000000FD
:10021800DC65000808B5034B1BB103490348AFF37D
:10022800008008BD00000000C8010020DC6500084F
:1002380053B94AB9002908BF00281CBF4FF0FF3145
:100248004FF0FF3000F06EB9ADF1080C6DE904CE47
:1002580000F006F8DDF804E0DDE9022304B0704799
:100268002DE9F047089D04468C46002B40F083801A
:100278008A42174647D9B2FA82F242B1C2F1200047
:1002880024FA00F09140974040EA010C94404FEA6C
:100298001748230CBCFBF8F61FFA87FE08FB16C1AB
:1002A80043EA014306FB0EF1994209D9FB1806F10E
:1002B800FF3080F01981994240F21681023E3B449A
:1002C8005B1AA4B2B3FBF8F008FB103344EA03440A
:1002D80000FB0EFEA64509D93C1900F1FF3380F05A
:1002E8000581A64540F2028102383C4440EA0640B6
:1002F800A4EB0E0400261DB1D4400023C5E9004339
:100308003146BDE8F08702B9FFDEB2FA82F2002A70
:1003180050D1CB1B4FEA174E1FFA87F80126B3FBC3
:10032800FEFC210C0EFB1C3341EA034108FB0CF3D5
:100338008B4207D979180CF1FF3002D28B4200F2B8
:10034800E9808446C91AA3B2B1FBFEF00EFB101176
:1003580043EA014408FB00F8A04507D93C1900F11D
:10036800FF3302D2A04500F2D9801846A4EB080456
:1003780040EA0C40BFE78B4209D9002D00F0B1805C
:100388000026C5E9000130463146BDE8F087B3FADA
:1003980083F6002E4AD18B4202D3824200F2B88003
:1003A800841A61EB030101208C46002DA8D0C5E911
:1003B800004CA5E7C2F1200320FA03F6974001FAA2
:1003C80002F04FEA174ED9403043030CB1FBFEF65A
:1003D8001FFA87F80EFB161143EA014306FB08F1E2
:1003E800994204FA02F409D9FB1806F1FF3C80F09F
:1003F8008D80994240F28A80023E3B445B1A81B26A
:10040800B3FBFEF00EFB103341EA034100FB08F397
:100418008B4207D9791800F1FF3C73D28B4271D90E
:1004280002383944CB1A40EA064678E7C6F1200C70
:1004380003FA06F422FA0CF31C4320FA0CF701FA2B
:1004480006F34FEA144E21FA0CF11F433B0CB1FBA3
:10045800FEF91FFA84F80EFB191143EA014109FB62
:1004680008FA8A4502FA06F200FA06F308D9611872
:1004780009F1FF3048D28A4546D9A9F10209214439
:10048800A1EB0A01BFB2B1FBFEF00EFB101147EA67
:10049800014700FB08F8B84507D9E71900F1FF3113
:1004A8002ED2B8452CD90238274440EA0940A7EB98
:1004B8000807A0FB02894F45C64649461AD317D0FC
:1004C8005DB1B3EB0E0267EB010707FA0CFCF240D3
:1004D8004CEA0202F740C5E9002700263146BDE88C
:1004E800F0872E4628460BE70646E9E61846FDE65D
:1004F8004345E5D2B8EB020E69EB04010138DFE7AA
:100508000846D2E760468DE78146B9E7664675E753
:1005180030464AE7ACF1020C394413E702383C4450
:1005280024E700BF704700BF024B1A880280586852
:10053800704700BFE00100200020704770B5D0F878
:100548009062002534467378AB4201DC002070BD10
:1005580094F826301BB1E36D0BB1A06E98470135B6
:100568004834F0E7002070470A23038000487047AA
:10057800000000202DE9F743D0F890420546254FAA
:100588000126C034DFF89480B9466379BA688BB322
:10059800730153F8081000292CDAC2F30D2253F81E
:1005A800083082EA1343DB0705D523890233C3F3F6
:1005B8000A039A421ED166F07F032846D9B203F097
:1005C8007F02154B019113445B011A6842F0904277
:1005D8001A6002F051F9D9F808300199C3F30D23D4
:1005E80023812379012B0DD12268E3880132284623
:1005F80002F071F901360C34052EC6D1002003B083
:10060800BDE8F0831BB9226893899268EFE701F08F
:1006180050FFEFE7000804404820000200090440AA
:1006280038B5D0F8903293F87A41D4B193F83021A4
:10063800012A16D1D3F82C215178062907D1B3F80D
:1006480078019168050A012D04D0022D0BD001F024
:1006580030FF06E04C6824B1D268C0B293F831117B
:10066800A047002038BD012CF1D18C68002CF8D0AF
:10067800D268C0B2B3F83111A047F2E773B5D0F829
:1006880090320C2405460E4604FB013494F8F530EC
:10069800D3B102F02EF9D4F8F03080B21A69196A91
:1006A800ADF806009047D4F8F0300DF106015A690C
:1006B800186A9047BDF8063002463146284602F0CF
:1006C80011F9002002B070BD01F0F3FEF9E7000057
:1006D8002DE9F74F0B780646D0F8904213F06007E3
:1006E80000F08780202F27D103F00303012B40F06F
:1006F800A8804F78012F05D007F17F03DBB2032BC9
:1007080000F29F800020254684F87A018A8815F82F
:1007180004CB120A60450CDA030115F803E096458C
:100728000CD1E5184888B5F808C0020A1CEA102C54
:1007380006D1304605F0C6FD002786E00130E9E71E
:1007480017F0800F13D10433A4F8780130462344FE
:10075800C4F82C31012384F83031CA8804F23111ED
:1007680084F87A71C4F8742105F0E8FDE4E7697942
:10077800062907D1012AE9685FFA82FC05D0BCF195
:10078800020F13D001F095FED6E7002384F831312B
:100798000B6804F2311123B12A69C0B2019198475C
:1007A80001990122304605F0B4FDC5E7A7F18102A1
:1007B80004F23115032A17D8DFE802F0020D1013EE
:1007C800CF68A7B11C4429460025C0B22269B847A2
:1007D80002222946E6E701F11205F9E701F11005C1
:1007E800F6E701F11405F3E701F063FEF0E73D4693
:1007F800EEE74B780A2B1DD00B2B0FD0062B20D100
:100808004B881B0A212B20D1CA88834B092A596897
:1008180028BF0922123105F07CFD16E06278B8463F
:100828000B79482004F12405424522DC4BB98B782A
:100838003BB90AE060783B46482504F1240C98420D
:1008480007DC0227304605F03DFD384603B0BDE819
:10085800F08F05FB03F291F804E01CF80280F045E4
:1008680005D102F12601304601222144D3E70133A4
:10087800E5E700FB08FA15F80AC09C4540F0C88077
:1008880004EB0A0991F802B099F826309B45DCD0B0
:1008980099F9282099F82850002A4FF00C02B5BF82
:1008A80005F00F0502FB054502FB0545F035B8BF0D
:1008B800B435BBF1000F2CD1F3B16B7933B12B6890
:1008C8003046197801F0C0FF85F805B099F84C302A
:1008D80093B199F850500C2305F00F0503FB05451B
:1008E80095F8B93043B1D5F8B4303046197801F0ED
:1008F800ABFF002385F8B93048210027002001FB11
:100908000848D8F86030D8F86810984788F82670F2
:100918009BE70AF12803584623442B60482303FB2E
:100928000848D8F86810D8F8603098472B6888F8D5
:1009380026B04FF0010B9A69186A90472968034658
:10094800E88001220978304601F073FF2B6885F8AA
:1009580005B003F10C015A69186A01939047019B8D
:100968002A68986092F900301178002B0FDA304627
:1009780001F082FF294B29689B688A68C3F30D231D
:100988002B818B890978304601F0A5FF5DE7EB885C
:100998003046926801F0A6FF99F84C30002B3FF4DE
:1009A80054AF99F850100C235A46304601F00F0501
:1009B80003FB05450AF150030AF1510A234485F85F
:1009C800B8B0C5F8B4300323A5F8BA3001F031FF48
:1009D800D9F85430D8F8580085F8B9B098477D232D
:1009E800400304EB0A023E30B0FBF3F0830804F83E
:1009F8000A30830A800C5370084B90709B6899F8F2
:100A08005010C3F30D23A5F8BC30B5F8BA30BAE7D7
:100A180008F1010808E700BFE001002000080440D1
:100A28002DE9F047D0E9A459044601262F46A846E7
:100A38004FF0000A98F8C5303BB166F07F012046B8
:100A4800C9B201F001FF88F8C5A0013608F10C0809
:100A5800052EEFD101264FF0000897F801312BB190
:100A6800F1B2204601F0F0FE87F8018101360C371B
:100A7800052EF2D1D9F804302846D9F81010984735
:100A8800284605F0B3FC0020C4F89002BDE8F087C2
:100A980038B504464FF4BE7005F0A0FC054690B189
:100AA8004FF4BE72002105F0B7FCD4F89432284602
:100AB8001A681969904740B1D4F8900205F096FC7D
:100AC8000023C4F89032022001E0C4F8905238BDE7
:100AD800F8B50C22D0F8903201F07F0405460E4696
:100AE80002FB043494F8B930002B35D094F8B830B0
:100AF800BBB9D4F8B4707B69B918386A9847184BF1
:100B0800D4F8B4209B68B860C3F30D23A4F8BC30B4
:100B18009389926846F08001284601F0DCFE0020A7
:100B2800F8BD012BFBD1D4F8B470D7E90130984750
:100B380043037D203E33B3FBF0F39A087A709A0A98
:100B48009B0CBA707A1CFB70054B9B68C3F30D2392
:100B5800A4F8BC300323DDE701F0ABFCDFE700BFFE
:100B68000008044008B531B1C0F894128B680A69CE
:100B78000249081D9847002008BD00BFE001002079
:100B880008B580B1D0F88C3213B10023C0F88C328C
:100B980009B1C0F888120123027080F8743201F09C
:100BA80001FE002008BD0220FCE719B1C0F88C1234
:100BB800002070470220704708B501F033FE00207E
:100BC80008BD08B5D0F88C320BB9022008BD1B68E7
:100BD80098470028FAD0F8E708B5D0F88C325B6857
:100BE8009847002008BD38B500F52075044628460A
:100BF80005F054FB012394F88012C4F86C32B4F861
:100C08008632C4F8703201F01F03012B08D0022B82
:100C18000BD07BB92946204605F074F9002038BD71
:100C28002946204605F08CFAF8E72946204605F0C3
:100C3800ABFAF3E701F08001204601F024FEEDE76E
:100C480038B50446154601BBD0F86C32032B0DD1DC
:100C5800D0E9531399420BD9C91A8B42C0F84C11E9
:100C680028BF0B4629469AB205F075FB002038BD0F
:100C7800D0F88C321B6923B190F87422032A00D172
:100C88009847204605F06FFBF0E7D0F88C329B6957
:100C9800002BEBD090F87422032AE7D19847E5E7B8
:100CA800F8B5044613460F4600293DD1D0F86C220A
:100CB800022A0FD1D0E90856B54214D9AE1B1946FD
:100CC800B2B2066205F032FB3B461A461946204688
:100CD80001F008FE94F87832012B02D1002384F841
:100CE80078320020F8BDC369B3FBF6F506FB15356D
:100CF80065B99E420AD8D0F87022934206D22A4695
:100D080005F014FB2B46C4F87052DEE7D4F88C3299
:100D1800DB682BB194F87422032A01D12046984746
:100D2800204605F02BFBD5E7D0F88C325B69002B09
:100D3800D7D090F87422032AD3D19847D1E700225C
:100D480038B5044640251146402301F072FD2B4674
:100D5800002280212046C4F8505101F06AFD012389
:100D6800656284F87432D4F890322BB1D4F88C329E
:100D7800204621795B689847002038BD017400201F
:100D8800704790F8743280F87532042380F8743212
:100D98000020704790F8753280F874320020704750
:100DA80008B590F87422032A04D1D0F88C32DB6994
:100DB80003B19847002008BD08B590F87422032AAB
:100DC80004D1D0F88C321B6A03B19847002008BDC3
:100DD80008B590F87422032A04D1D0F88C325B6AE3
:100DE80003B19847002008BD00207047012201790F
:100DF80008B580F87422D0F88C22526890470020F9
:100E080008BD0023037018467047137803F0FD03EC
:100E1800012B08D1022390611370002343601375DE
:100E2800137A03B91186002070470323037000204A
:100E380070470378022B04BF4023037500207047D6
:100E4800808B704700207047002303701846704756
:100E58000B4610B501F1340407C884E807000222E4
:100E68009C6B1A7024B159680020DA6BC968A047D6
:100E7800002010BD03230370002070475368002032
:100E88001B7C0B70704708B5536819741378022BD4
:100E980003D1536B0BB1D26B9847002008BD536840
:100EA8000020DB680B80704708B50B04536848BF07
:100EB800A1F58031D9601378022B03D1936B0BB164
:100EC800D26B9847002008BD10B50446808B088077
:100ED8002378022B1AD1A1698B88CA889A4224BF29
:100EE80009895B189B1A9BB2984204D9E26821468B
:100EF800042093689847227DA369520642BF0022C6
:100F080022755A601868DA88104410BD01F0D0FACA
:100F18000020FAE738B50B780C46022B42D10B7D3E
:100F28008D695A0604D500230B756B60002038BD07
:100F3800EA88DB07024492B2EA8008D4CA68012032
:100F480093689847237D43F001032375EEE72989C9
:100F58008A4206D9521A286892B20144EA8005F0FA
:100F68004DFAAA88E9882889914236BF0B188B1A4E
:100F78009B1A814208BF00229BB208BFEA80207DED
:100F8800E26810F00800956808D1218E994205D8CA
:100F98002146A847237D43F00803D6E721460220CF
:100FA800A847C3E701F084FAC0E7000070B504461B
:100FB8000D46164600215422184605F02DFA012246
:100FC800154903460270022201630272134A14494A
:100FD8000264144A06754264134A8264134AC2645E
:100FE800134A0265C0E90612124A4262124A0262B4
:100FF8002A6802856A684285AA688285EA6842602A
:10100800032200202670A28006226080627003F10D
:101018001802C4E9022370BD45100008B50F000886
:10102800850E0008510E0008590E00087D0E0008B4
:101038008F0E0008A70E0008B10E000800207047A8
:10104800F0B5DA600024164A01261C754FF47A7749
:101058001A62144A1E705A62134A1C729A62134A20
:101068005960DA620A680D79497C6943B2FBF7F581
:1010780015FB01F53A44B2FBF7F212FB01F2DD83EE
:101088009A8303620A4B067003610A4B44804361EA
:10109800094B84808361094BC3612046F0BD00BFC2
:1010A8000B0E0008130E00083B0E0008330E000854
:1010B8001D0F0008D10E0008490E00084D0E00084B
:1010C800CB1AB3FBF2F313FB02F200230281436055
:1010D80070470020704700000F4A014610B513788A
:1010E800022B16D1506D68B90C8B4B8B898BA342A0
:1010F800906D28BF6418E31A8C08B3EB910F02D8DF
:10110800A0F57A7010BD091B994202D800F57A70D3
:10111800F8E7906DF6E700BFE801002038B5094C04
:101128000546D4F8983004F16C009847D4F8EC30B0
:1011380004F1A0009847636A2046984703232B7060
:1011480038BD00BFE801002038B503790446C3B1B3
:10115800022B02D10430FFF7E1FF0B4DEB69284663
:101168009847D5F8E43005F1A0009847D5F88C30B9
:1011780005F16C009847606908B105F037F900235C
:101188002371002038BD00BFE801002038B503797D
:10119800154C022B26D194F8F450C5B1A36B204608
:1011A8009847D4F8F8301844B4F8FC300133C4F840
:1011B800F8009BB2B3F57A7FA4F8FC3006D100237F
:1011C8004008A4F8FC306065C4F8F83038BD636B9B
:1011D800204698470123A4F8FC50C4F8F85084F836
:1011E800F430F3E70023FAE7E8010020052870B59A
:1011F800154604D8032834D838B3002070BD082811
:10120800FBD1204C4FF47A76A36A2046984794F88D
:10121800691094F85C20B4F88A0012FB01F2A16D01
:10122800B4F88830B1FBF6F112FB01F2984228BFFE
:1012380000234FF4205105F1140092B2FFF740FF4C
:10124800002384F8F4306365D7E70E7A002ED4D1F2
:101258000C4C02F11400236A2146984784F8F46084
:10126800CBE7084C636A20469847002384F8F4309B
:1012780063652B79022BC0D1D4F8943004F16C004B
:101288009847BAE7E80100207FB50C464B7C064634
:1012980058B93BB10B79022B02D1081DFFF73EFF6D
:1012A80000236374002004B070BD002BFAD10B79C1
:1012B80003F0FD03012B16D10C4D04F11400898BAA
:1012C800D5F8903005F16C0249089847EB6A05F1AA
:1012D800A00101A801932B6B03950293D5F8E83080
:1012E8009847022323716674DCE700BFE8010020F9
:1012F8002DE9F04F064685B018468A4691460021EA
:1013080020221D4605F088F8424B4FF42050012753
:10131800EB60414B2F82AB60A88305F05FF86861F2
:1013280008B901F0C5F83D4C02234FF000082A46E1
:1013380084F85C30032304F1580BA4F86070A4F817
:101348005E304BF68033C4F864805946A3654FF489
:101358000073301DA4F8683004F16C0389F800802C
:10136800FFF76EFE04F16C03694616222B604FF4FA
:10137800C0635046CDF80CB00093A3F5F853019321
:101388008023029304F1A003FFF710FE99F80020D0
:1013980004F1A00329460132584689F80020224664
:1013A800E36700F071FF8123C4F8B04086F8287025
:1013B80086F82C301A4BC6E90C351A4BB3632B7CD4
:1013C80086F802803370184B7770F36394F86910CD
:1013D80094F85C20154BB4F88A0012FB01F23364D0
:1013E800A16DB4F888304FF47A747564984228BFB8
:1013F800434605F11400B1FBF4F112FB01F24FF47E
:10140800205192B2FFF75CFE012340462B7105B0D4
:10141800BDE8F08F51110008F5110008E80100201F
:10142800E11000089511000891120008DB1000086F
:1014380008B1024B03607720704700BF44000020CA
:1014480010B504460348C3689847002084F826006E
:1014580010BD00BF940400200020704710B50C4652
:10146800FFF7E6FF2080002010BD000037B50025FB
:1014780004460DF10702011D064B24308DF8075074
:10148800FFF736FF9DF80730012228466270237067
:1014980003B030BD94040020012907B5C0B20FD0B5
:1014A80003292FD140F60F720521019001F094FB1A
:1014B800012240F20161019801F08EFB01220CE04B
:1014C80040F60C420521019001F086FB002240F213
:1014D8000161019801F080FB002240F2026101984D
:1014E80001F07AFB022240F20461019801F074FBDA
:1014F8000222019840F2056101F06EFB002003B062
:101508005DF804FB40F203320521019001F064FB11
:10151800012240F20161019801F05EFB012240F2D4
:101528000261019801F058FB002240F20461019821
:1015380001F052FB0022DCE708B545F22263C0B295
:10154800994220D00BD842F61133994219D0B1F5FF
:101558007A5F14D0B1F5FA5F0AD0832209E04AF61F
:101568004443994211D00A4B9942F6D1A32200E094
:1015780003224FF4047101F02FFB002008BD332231
:10158800F7E71322F5E74322F3E77322F1E700BFF9
:10159800007701000022C0B208B5114601F01CFB1B
:1015A800024B0020C3E9000008BD00BFE80200208C
:1015B80001F010BB10B5044601F006FB0021E0B2B3
:1015C80001F01EFB10BD0000104B1B6807B583B16E
:1015D8000129C0B211D14FF400724FF48461019017
:1015E80001F0FAFA4FF4007240F22241019801F03A
:1015F800F3FA002003B05DF804FB00224FF4846185
:10160800019001F0E9FA0022EEE700BFE8020020AD
:101618000021FFF7D9BF0021FFF7D6BF38B5012158
:101628000546FFF7D1FF04460122E8B2022101F086
:10163800D3FA204638BD000064294FF064023E4BBF
:101648002DE9F34198BFC1EB81171E6805460C468A
:1016580088BF174698469CBFB7FBF2F2D7B22EB3A5
:101668003E2F1DD90021FFF7AFFF0646E8B240F232
:101678007F121C21009001F0AFFA40F27F121D2169
:10168800009801F0A9FA40F27F122621009801F093
:10169800A3FA40F27F122721009801F09DFA05E095
:1016A800002930D10121FFF78FFF0646D8F8043012
:1016B8002BB3632CE8B24FF480619ABFC4EB0412D9
:1016C8006424EF2200909EBF1201B2FBF4F2D2B262
:1016D80042F48072019201F07FFA019A40F20141CE
:1016E800009801F079FA019A40F20441009801F05B
:1016F80073FA019A40F20541009801F06DFA3046FC
:1017080002B0BDE8F0810021FFF75EFF47F4A07248
:101718000646E8B21C210192009001F05DFA019A98
:101728001D21009801F058FA019A2621009801F02D
:1017380053FA019AAFE700BFE80200202DE9F84FFD
:101748008146984601F47F4592465FFA89F4CEB205
:1017580001F03AFA03224FF48171204601F03CFA75
:10176800002240F61701204601F036FA00224FF415
:101778008171204601F030FA6C223921204601F0AF
:101788002BFAC5B313220121204601F025FA322095
:10179800DFF898B401F04CFA002E00F09A80012787
:1017A800022ECBF800707AD0032E26D0BE4276D116
:1017B80040F60C420521204601F00EFA002240F2C4
:1017C8000161204601F008FA002240F20261204639
:1017D80001F002FA022240F20461204601F0FCF90D
:1017E800022240F20561204601F0F6F93DBB2F4682
:1017F800CBF8045032E00322C5E7B5F5006F40F698
:101808000F724FF0050120463FD101F0E5F932464D
:1018180040F20161204601F0DFF9324640F20261F0
:10182800204601F0D9F9324640F20461204601F021
:10183800D3F9324640F20561204601F0CDF901277F
:10184800B5F5407FCBF8047000F09D8044D8B5F51D
:10185800807F00F0C780B5F5007F6ED0B8F5FA4FED
:1018680000F0A58100F2C880B8F57A5F00F09D818C
:1018780000F2BB80B8F5FA5F00F0CE8042F6113373
:10188800984500F098818322C7E001F0A5F93A460F
:1018980040F20161204601F09FF93A4695E740F28F
:1018A80003320521204601F097F93A4640F20161DA
:1018B800204601F091F93A4640F20261204601F0D3
:1018C8008BF9002240F20461204601F085F90022DC
:1018D80087E7CBF8006089E7B5F5006FBED140F621
:1018E8003C720421204601F077F9DB224FF48A612B
:1018F800204601F071F9DB224FF48861204601F09F
:101908006BF946F2A0320221204601F065F9022265
:1019180040F20661204601F05FF9022240F20761B9
:10192800204601F059F902224FF4C161204601F026
:1019380053F9022240F209614FE04FF44362042157
:10194800204601F049F9DB224FF48A61204601F074
:1019580043F94FF4C0420221204601F03DF902222A
:101968004FF4C161204601F037F9022240F20961C3
:10197800204601F031F90E224FF4E061204600279D
:1019880001F02AF96AE711222821204601F024F9FA
:1019980035222921204601F01FF935222A21204627
:1019A80001F01AF940F203320421204601F014F93B
:1019B800DB224FF48861204601F00EF946F25032DE
:1019C8000221204601F008F9022240F20661204671
:1019D80001F002F9022240F20761204601F0FCF80A
:1019E8000D22C9E74FF44372DEE745F222639845BA
:1019F8007FF449AF432210E04BF6803398453FF41B
:101A080042AF894B984500F0D4804AF64443984544
:101A18007FF439AF732200E003224FF404712046AB
:101A280001F0DAF8B5F5006F40F0C78044F218020B
:101A38004FF44071204601F0CFF8002240F2023105
:101A4800204601F0C9F80A224FF40271204601F03D
:101A5800C3F801224FF40071204601F0BDF8002EB2
:101A680000F082804FF440720321204643F203368F
:101A780001F0B2F800222221204601F0ADF8002240
:101A88002321204601F0A8F84FF440723621204661
:101A980001F0A2F843F203020121204601F09CF86C
:101AA800B5F5006F4FF0510120460CBF40F20522FA
:101AB800052201F091F843F203320121204601F09A
:101AC8008BF822226021204601F086F849F625721B
:101AD8004C21204601F080F80F2001F0A9F80122DE
:101AE8002D21204601F078F801222E21204601F010
:101AF80073F84FF44C720321204601F06DF833223D
:101B08005421204601F068F8FA2001F091F8EE22FD
:101B18006021204601F060F8C0224FF4C2612046DF
:101B280001F05AF8C02240F21161204601F054F841
:101B380000224FF48461204601F04EF8C02240F2A2
:101B48001261204601F048F8C02240F21361204695
:101B580001F042F8002240F22241204601F03CF810
:101B680051464846FFF768FDE5B1B5F5807F02D0DC
:101B7800B5F5007F2AD146F013020121204601F075
:101B88002BF802224FF4C461204601F025F84FF4E7
:101B9800605240F21141204601F01EF85146484675
:101BA800FFF74AFD3846BDE8F88F332235E7632250
:101BB80033E7A32231E713222FE79DF82830102BB3
:101BC8000CBF44F2100244F2700231E7B5F5006F21
:101BD80015D146F013020121204600F0FDFF022234
:101BE8004FF4C461204600F0F7FF4FF4C0524FF4A1
:101BF8008261204600F0F0FF4FF4C052C9E7B5F506
:101C0800407F02D0B5F5806FC8D10B22182120463D
:101C180000F0E2FF0B221A21204600F0DDFF4FF40E
:101C2800C0524FF48261B6E700770100E802002055
:101C3800F7B5194F04460E463D6855B30121FFF725
:101C4800C3FC022E054624D0E0B24FF400724FF4D4
:101C58008461019000F0C0FF4FF4007240F222410D
:101C6800019800F0B9FF00222D21019800F0B4FF7F
:101C780000222E21019800F0AFFF002205210198D3
:101C880000F0AAFF00220198114600F0A5FF0023EA
:101C98003B60284603B0F0BDE8020020044B05482D
:101CA8001A68036022F480321A6003F0FCBB00BF9C
:101CB80004580140EC05002038B5104B05460C4689
:101CC8008AB21B6801463420DB68984798B90C4AE9
:101CD8001378B4FBF3F3B3F5803F09D21278B4FB61
:101CE800F2F292B22946074803F048FC002038BDBA
:101CF8004FF6FF72F6E70120F9E700BF240700203E
:101D080000010020EC050020044B1A781A78B1FB7A
:101D1800F2F20146024803F031BC00BF0001002086
:101D2800EC05002038B50546094803F0DCFB094BF3
:101D3800294634201B689B699847044630B9012D11
:101D480002D1284600F0BEFF204600E0012038BD41
:101D5800EC0500202407002008B5054B0146342077
:101D68001B681B6A9847003818BF012008BD00BFD0
:101D78002407002008B5054B014634201B685B6A20
:101D88009847003818BF012008BD00BF240700206D
:101D980008B500F0C9FA08BD08B500F035FB08BD64
:101DA80070B53F4C8AB04FF0700C4FF0000E636C6A
:101DB80005460E463B4843F4800305A96364636CFB
:101DC80003F480030193019B236B43F040032363D7
:101DD800236B03F040030293029B236B43F0100331
:101DE8002363236B03F010030393039B0223CDE9C2
:101DF80005C30323CDE907E30623099301F0F0F9AE
:101E0800802305A92848059301F0EAF9236B43F4D8
:101E180080032363236B03F480030493049B002E45
:101E28003CD032782968214B99422DD1182A204B71
:101E38004FF000014FF040000CBF4FF480524FF4B8
:101E48000062D96007BF5A614FF480425A614FF46B
:101E58000052EB669A6100229D63C3E901104FF4BA
:101E68008061042019614FF40031C3E9072103217F
:101E7800C3E90B220F4AC3E909010D481A6001F0B2
:101E880045F80B4800F0C2FF00220221392000F07B
:101E98003DFF392000F06CFF0AB070BD1022C1E789
:101EA8000038024000100240001802400458014067
:101EB800F00200202864024010B50446392000F0E2
:101EC80065FF0D4B22689A4202D1E06E01F01EF8C0
:101ED800226870210948136823F48033136001F0E5
:101EE80071FA8021064801F06DFA064A536C23F412
:101EF8008003536410BD00BF045801400010024025
:101F0800001802400038024008B5FFF7C7FE00215C
:101F18000148FFF7D1FF08BDEC05002010B5A4B0BB
:101F28000C46684603F07AF842F611339C4207D013
:101F380045F222639C4203D04AF644439C4211D1A5
:101F48004FF4002300934FF480130F9340F2AD1326
:101F580001930223039313236846099302F0AAFD11
:101F680024B010BD4FF4002300934FF480130F9357
:101F78004FF4AC730193072303930123ECE70000AC
:101F88002DE9F04385B01746804689468DF80F3015
:101F9800FFF784FE9DF80F3000223A4D3946102B8A
:101FA800394C6B700CBF022304232046374E2B702C
:101FB800FFF7B4FF2046266003F073FB20B90DF14C
:101FC8000F012046FFF7ECFE33684FF400509DF8F0
:101FD8000F2023F480332660102A33604FF000036B
:101FE8000CBF8021E0216362182A63604FF000066D
:101FF800636108BF80222363A360E360236208BF94
:1020080022644FF0040220611F48E761A665C4E915
:102018000D13C4E90A334FF040034FF001011CBF10
:1020280023642023E16363644FF48033A161C4E92E
:1020380012364FF48023C4E914360523C4E9172364
:1020480003F056F92268124C3420136843F48033A5
:102058001360A368984748F69413984210D1E36A2E
:10206800342098470B4B4A4641461C6034206B7815
:1020780000933B462468A047304605B0BDE8F0838E
:102088000120FAE700010020EC0500200458014077
:10209800D00000202407002013B50F4C0146002271
:1020A80001902046FFF73AFF2268019920461368FD
:1020B80023F480331360E16103F01AF9074B3420ED
:1020C80001991B68DB69984720B92268136843F4B3
:1020D8008033136002B010BDEC05002024070020F7
:1020E80070470000026808B5044B9A4202D100F01C
:1020F80019F908BDFFF7F4FFFBE700BF04580140DA
:10210800DFF834D0002103E00C4B5B584350043116
:102118000B480C4B42189A42F6D30B4A02E00023B4
:1021280042F8043B094B9A42F9D300F0E5F904F070
:1021380031F900F06BF97047000005209866000837
:1021480000000020C4010020C4010020201100204C
:10215800FEE790F8503043F0010380F8503000203B
:10216800704790F8503043F0040380F85030002056
:1021780070470000034BDB6E1B685B68A0F85230A9
:1021880000207047EC0500200B4BDA6EB3F868109E
:102198001268B0F852305268934210B5B4BF8C1A26
:1021A8009B1AA0F85220B8BF1B19B3EB510FB8BF48
:1021B8005B1898B210BD00BFEC050020436810B54D
:1021C800597C04461A791B6812FB01F24FF47A71A4
:1021D800B3FBF1F312FB03F2002192B2A0F84E1008
:1021E80002838287806C04F017F9A36C2364A38FA1
:1021F800A4F8443010BD01F5C851642048434FF499
:10220800F85190FBF1F008B5C0B2FFF7A5FD00202A
:1022180008BD084608B5FFF7ADFD002008BD38B574
:1022280000254B680C46486181F85050187CFFF730
:10223800A1FD636822462846D968FFF7DCFF022320
:102248002846237038BD000010B503780446ABB1AA
:10225800042B06D0022380F8503094F850309B07A6
:10226800FBD40120FFF786FDA06C04F0BFF8022024
:10227800FFF758FDFFF748FE002323700020014BAD
:10228800186010BDE803002070B5144605460E46D8
:1022980054220021204604F0BFF801234FF41070A7
:1022A800E66023722370656004F098F8A06408B9AA
:1022B80000F0FEF82046FFF781FF114B62685021BD
:1022C800E36104200F4B126823620F4B63620F4BCC
:1022D800A3620F4BE3620F4B23630F4B63630F4BF8
:1022E800A3636B7CDB0003F0F803FFF749FEB4F847
:1022F8004410206CFFF7E0FC094B00201C6070BD07
:1023080051220008272200085B2100086B210008E1
:102318001B220008FF2100087D21000891210008E8
:10232800E803002000F0C4B870B5364D2B684BB1F7
:102338001A783AB193F8502012F0020403D0002220
:1023480083F8502070BD93F85020520714D503220B
:1023580001201A70FFF70EFD2E683046FFF72EFF9A
:1023680073681868FFF798FE2B685B68187CFFF79E
:1023780001FD2B6883F850402C6894F85030DB0737
:1023880011D5A06C0021A28F2064A4F8442084F801
:102398004F1004F041F80323237094F8503083F071
:1023A800010384F85030B4F84410206CFFF7ACFCFB
:1023B80029680B78022BC5D1CA680320936898470F
:1023C800296848698C8FC2888388A1F844409A425A
:1023D8003CBF05895219D21A92B2944205D9CA68EB
:1023E80005209368BDE8704018470C8B02681A44B2
:1023F80023440A649BB202898380934224BF9B1AB8
:1024080083809FE7E80300207047000000B5B7B05D
:10241800022400F033FC4FF48033012119204FF0DF
:10242800080C0F94CDE90513002308934FF480039B
:10243800CDE90B434FF4C073CDE90D03072305A87D
:10244800CDE910C302F0CEF800B1FEE74FF4001357
:10245800319012A8129302F02DFB00B1FEE70F2372
:102468004FF4A052029006216846CDE900344FF49B
:102478008053CDE9032302F07BFA024600B1FEE760
:1024880007490848FEF77CFB07490648FEF78DFB1D
:1024980006490448FEF766FB0248FEF78DFBFEE797
:1024A8003C010020700900200C000020BC00002026
:1024B800FEE7FEE77047FEE7FEE7FEE7FEE7704748
:1024C8007047704700F0ECBB014801F0D5BB00BF76
:1024D8000C0C0020014BD86E00F0C4BDEC050020A8
:1024E800014B986A00F0BEBD70060020014B986A47
:1024F80000F0B8BD840800200F490020D1F88830CA
:1025080043F47003C1F888300C4B1A6842F001029A
:102518001A6098601A6822F0847222F480321A6075
:10252800074A5A601A6822F480221A60D8604FF06D
:1025380000638B60704700BF00ED00E00038024088
:10254800103000240368B3F1A04F2DE9F04190B09A
:102558004AD16A4C4FF4C05200250326236B0A2740
:102568000BA9674843F001032363236B0F9703F01C
:1025780001030193019B0223CDE90D56CDE90B23FD
:1025880000F02EFE4FF400730BA95D480D95CDE9C0
:102598000B3500F025FE4FF48061122358480F9741
:1025A800CDE90B1301230BA90D9300F019FE636B02
:1025B80043202A46314643F080036363636B03F08C
:1025C80080030293029B636C43F480436364636CEF
:1025D80003F480430393039B00F098FB432000F02F
:1025E800C7FB10B0BDE8F081464A9342F9D1434C8D
:1025F800002502270A26236B4FF003080BA9404841
:1026080043F001032363236B03F001030493049B4A
:10261800236B43F002032363236B03F00203059348
:10262800059B236B43F004032363236B03F004032C
:102638000693069B236B43F080032363236B03F00D
:1026480080030793079B236B43F480732363236BF7
:102658000F9603F480730893089B2023CDE90D5847
:10266800CDE90B3700F0BCFD08230BA924480F96D1
:10267800CDE90B37CDE90D5800F0B2FD43F6234301
:102688000BA921480D950F96CDE90B3700F0A8FD51
:1026980001230BA91D480D950F96CDE90B3700F0C6
:1026A8009FFD10230BA91A480D950F96CDE90B37FE
:1026B80000F096FD4FF400630BA916480D950F9690
:1026C800CDE90B3700F08CFD236B4D202A4643F0F3
:1026D800804341462363236B03F080430993099B9E
:1026E800236B43F000532363236B03F000530A93D7
:1026F8000A9B00F00BFB4D2071E700BF0038024039
:1027080000000240000004400004024000080240AB
:10271800001C02400020024000F57071D0F8FC0354
:10272800FEF761BA1C2303FB0103D0F8FC03D3F8BE
:102738000822FEF785BA1C2303FB0103D0F8FC032B
:102748009A6CFEF7ADBAD0F8FC03FEF729BB13B5B7
:10275800C1680446D0F8FC03003918BF0121019173
:10276800FEF7EDFA0199D4F8FC0302B0BDE8104079
:10277800FEF704BBD0F8FC03FEF703BBD0F8FC035C
:10278800FEF708BBD0F8FC03FEF722BBD0F8FC0329
:10279800FEF712BBD0F8FC03FEF726BBD0F8FC030B
:1027A800FEF724BB03461D491D48062210B5002428
:1027B800C0F8FC33C3F898020463C0E90012402251
:1027C8000221C0E904420122C160C0E90844C0E90D
:1027D8000622C26201F0C5F92046FEF729FE033041
:1027E800C0F38F0404F1100189B2F02911D8C1F5A2
:1027F800A07189B20A4801F0DDFE2246002108488E
:1028080001F0B8FE10220121054801F0B3FE0020B6
:1028180010BDFFF74DFE5021ECE700BF000004405B
:102828000C0C002008B5D0F8980201F00FFA00202F
:1028380008BD10B51446D0F898021A46234601F090
:102848005FFD002010BD000008B50B060BD501F098
:102858007F02084B13445B011A68002A03DA1A68DE
:1028680042F080421A60D0F8980201F081FD002001
:1028780008BD00BF4820000208B5D0F8980201F052
:1028880060FE002008BD08B5D0F8980201F0EBFD05
:10289800002008BD08B5D0F8980201F01CFE002001
:1028A80008BD11F0800FD0F898324FF01C0217BF06
:1028B80001F07F0102FB013102FB013191F83E007A
:1028C80008BF91F8FE01704708B5D0F8980201F0EA
:1028D80003FD002008BD08B5D0F8980201F0A3FD5B
:1028E800002008BD08B5D0F8980201F070FD00205E
:1028F80008BD08B5D0F8980201F08DFD08BD0000AC
:10290800122301480B807047080100200423014866
:102918000B8070471C010020002370B54D1C1E461B
:10292800040FB0F1204F4FEA001034BF3034373471
:1029380001F8134005F813600133DCB2A242EFD866
:1029480070BD00001A2310B50B80094B18680833B6
:102958001B68C0180AD0074B082207491C68FFF7F4
:10296800DBFF042205492046FFF7D6FF044810BDC7
:10297800107AFF1F147AFF1F220100203201002065
:102988002001002010B5044C0A460448214603F0F3
:10299800A4FC204610BD00BF0C10002014660008DF
:1029A8000A46054908B520B9044803F096FC0248D0
:1029B80008BD0348F9E700BF0C100020276600088F
:1029C8004866000810B5044C0A460448214603F03E
:1029D80084FC204610BD00BF0C100020696600086A
:1029E80010B5044C0A460448214603F076FC2046FC
:1029F80010BD00BF0C1000207666000870B58AB0C4
:102A0800054601F0ABF8002860D1504B0026504C29
:102A18009D426E610CBF4F4A4F4A9D422A604F4A01
:102A2800C5E901264FF00102C5E90766C5E9032695
:102A3800236B4DD143F008034FF480504FF0020C44
:102A480005A92363236B03F008030093009B236B02
:102A580043F002032363236B079603F002030193F9
:102A6800019B1223CDE9050304233D48CDE908C3A2
:102A780000F0B6FB802305A93A4805930B23099378
:102A880000F0AEFB236C32460F215F2043F08073C9
:102A98002364236C03F080730293029B236A43F040
:102AA80080732362236A23F08073236200F02EF977
:102AB8005F2000F05DF9602032460F2100F026F912
:102AC800602000F055F9284600F066FE0AB070BD97
:102AD80043F002034FF48072022122482363236BE0
:102AE800079603F002030393039B1223CDE9052302
:102AF8000423CDE9081305A900F072FB4FF4007315
:102B080005A91848059300F06BFB236C32460F218A
:102B18001F2043F400132364236C03F4001304936D
:102B2800049B236A43F400132362236A23F40013EB
:102B3800236200F0EBF81F2000F01AF9202032463B
:102B48000F2100F0E3F82020BBE700BFEC030020D2
:102B58000038024000600040005400403227914095
:102B6800000C02400004024030B54FF47A7485B07E
:102B780005460294BDF824400194089C009400F096
:102B88002FFF044628B1284600F058FE2846FFF7D4
:102B980035FF204605B030BD30B54FF47A7485B0A6
:102BA80005460294BDF824400194089C009400F066
:102BB8005EFE044628B1284600F040FE2846FFF78E
:102BC8001DFF204605B030BD0148FFF717BF00BF05
:102BD800EC030020704700001FB552BA0223ADF87D
:102BE8000E200DF10E02019300920A460146034899
:102BF800FFF7D2FF05B05DF804FB00BFEC0300202F
:102C08001FB500230A460DF10E01ADF80E30022360
:102C18000091014601930548FFF7A6FFBDF80E0095
:102C280040BA80B205B05DF804FB00BFEC03002099
:102C380000F048B87047000070B50E4E05464FF4D6
:102C48007A730D4A3078B3FBF0F31068B0FBF3F0F9
:102C580000F0B0F8044650B90F2D08D802462946AE
:102C68004FF0FF3000F052F82046756070BD01202B
:102C7800FCE700BF5801002004010020074A032098
:102C880008B5136843F40073136000F02DF80020B2
:102C9800FFF7D2FFFFF7CEFF002008BD003C02403F
:102CA800034A044B11681B780B441360704700BF3C
:102CB8000C11002058010020014B1868704700BF14
:102CC8000C11002038B50446FFF7F6FF0546631CD3
:102CD8001EBF044B1B78E418FFF7EEFF431BA3420B
:102CE800FAD338BD5801002007490302CA6803F423
:102CF800E06322F4E0621204120C134343F0BF6352
:102D080043F40033CB60704700ED00E0164B30B55C
:102D1800DC68C4F30224C4F10705231D042D28BF71
:102D28000425062B4FF0FF338CBF033C002403FA25
:102D380005F5002803FA04F321EA050122EA030253
:102D480001FA04F141EA02034FEA0313DBB206DB9E
:102D580000F1604000F5614080F8003330BD00F0BC
:102D68000F00024A1354F9E700ED00E014ED00E00B
:102D7800002808DB4209012300F01F0003FA00F0D5
:102D8800014B43F82200704700E100E000280DDB0A
:102D98004309012200F01F00203302FA00F0044A20
:102DA80042F82300BFF34F8FBFF36F8F704700BF08
:102DB80000E100E00138B0F1807F0AD2064BF02133
:102DC800064A5860002082F82310072298601A608B
:102DD80070470120704700BF10E000E000ED00E000
:102DE800036802461820D9B21039B1FBF0F010B5CB
:102DF800054C5F29205CD06523F47F7020F0030028
:102E080088BF0430906510BD0C66000870B5044694
:102E1800FFF752FF0546002C73D00023226884F880
:102E28003430022384F83530136823F0010313602B
:102E380021680B68D8072FD40B68334DA0691D4053
:102E4800D4E901231343E2681343226913436269F7
:102E58001343E26903431343226A1343626A042A51
:102E680043EA050302BFD4E90B5635432B43042A32
:102E78000B604B6923F0070343EA020333D1A26ACC
:102E8800E56A13437DB390B9012A21D032F00202DA
:102E980029D1EA0127D51EE0FFF70EFF401B0528C0
:102EA800C6D920230320636584F8350070BDB0F5CA
:102EB800005F14D1032A16D801A050F822F000BFF1
:102EC800DF2E00089B2E0008DF2E0008D92E0008F0
:102ED800B5F1C07F07D1402301206365E4E7022AEA
:102EE800F9D9032AD5D04B612046FFF779FFE26D67
:102EF8003F239340836000200123606584F83530C8
:102F0800D4E70120D2E700BF3F8010E038B505467E
:102F180020B390F83530022BDCB21DD003680024B2
:102F28001A6822F001021A6021221C605C609C6011
:102F3800DC601C615A61FFF753FFEA6D3F23934041
:102F480083606C6585F8344085F83540C5E90F44E1
:102F5800C5E91144C5E91344204638BD0124FBE7FF
:102F680070B590F83440866D012C34D001240025CA
:102F780080F8344090F83540012C4FF0020428D1F5
:102F880080F8354004684565256825F48025256066
:102F980063608368402B19D1A260E160C26D3F2352
:102FA8009340B360236843F016032360636943F0DA
:102FB80080036361036C1BB1236843F0080323603B
:102FC8002368002043F00103236070BDA160E26024
:102FD800E4E780F834500220F7E770B50446866DC0
:102FE800FFF76AFE054694F83530022B06D0802399
:102FF80001206365002384F8343070BD23681A68A3
:1030080022F016021A605A6922F080025A61226C74
:103018000AB9A26C1AB11A6822F008021A601A6872
:1030280022F001021A6023681B6813F001030AD119
:10303800E16D3F2218468A40B260012284F834309C
:1030480084F83520D9E7FFF737FE401B0528EAD971
:10305800202303206365002384F8350084F8343086
:10306800CBE700000023F7B5019308225B4B044629
:10307800856D1F68C36D2E689A4032420CD0016876
:103088000868400708D5086820F004000860AA60AE
:10309800626D42F00102626501229A40324208D014
:1030A80021684969090604D5AA60626D42F00202E6
:1030B800626504229A40324208D02168096888076C
:1030C80004D5AA60626D42F00402626510229A403B
:1030D800324210D02368196809070CD5AA601A680B
:1030E800500337D51B68190301D4236C00E0A36C87
:1030F8000BB120469847E16D20228A4032423AD0EF
:1031080023681868C60636D5AA6094F83520052ABB
:103118001A6827D122F016021A605A6922F0800232
:103128005A61226C0AB9A26C1AB11A6822F0080214
:103138001A603F238B40AB60002384F834300123AE
:1031480084F83530236D002B45D0204603B0BDE808
:10315800F04018471A68D205C7D41A6822F0080246
:103168001A60C2E7500327D51B68190331D4636C72
:103178000BB120469847636D6BB3636DDA0719D5B9
:103188004FF416532268B7FBF3F7052384F835305C
:10319800136823F001031360019B0133BB420193C1
:1031A80002D81368DB07F7D4002384F834300123EE
:1031B80084F83530E36CC6E71A6812F4807208D1D7
:1031C800196821F010011960012384F8342084F86B
:1031D8003530E36BCCE703B0F0BD00BF040100203D
:1031E8002DE9F04F002385B0DFF8D081714ADFF870
:1031F800D09101270C689F4007EA040537EA0404C8
:1032080040F0BE804C6824F0100ABAF1020F16D1C3
:103218004FEAD30E03F0070B4FF00F0C00EB8E0EA6
:103228004FEA8B0BDEF820600CFA0BFC26EA0C0C3C
:103238000E6906FA0BF646EA0C06CEF820604FEA4D
:10324800430E4FF0030CD0F800B00AF1FF3A0CFA25
:103258000EFCBAF1010F6FEA0C062BEA0C0B04F016
:10326800030C01960CFA0EFC4CEA0B0CC0F800C0DB
:1032780015D8D0F808C006EA0C0CCE6806FA0EFA83
:103288004AEA0C0CC0F808C0D0F804C02CEA0707BA
:10329800C4F3001C0CFA03FC4CEA07074760C76834
:1032A800019E37408E6806FA0EF63E43C660E60079
:1032B80066D5D8F8446023F0030703F0030C4FF0F9
:1032C8000F0E46F4804607F180474FEA8C0CC8F889
:1032D800446007F59C37D8F8446006F480460396A6
:1032E800039E0EFA0CF6D7F808A02AEA060E324E0C
:1032F800B0424CD006F58066B0424AD006F58066EA
:10330800B04248D006F58066B04246D006F58066E1
:10331800B04244D0484544D006F50066B04242D099
:1033280006F58066B04240D006F58066B0423ED0D1
:1033380006F58066B0420CBF09260A2606FA0CF686
:1033480014F4803F46EA0E06BE606FEA0507166869
:103358000CBF3E402E4314F4003F166056680CBF65
:103368003E402E4314F4801F566096680CBF3E40C2
:103378002E43A4029660D66854BF3E402E43D660C2
:103388000133102B7FF435AF05B0BDE8F08F002670
:10339800D4E70126D2E70226D0E70326CEE70426A3
:1033A800CCE70526CAE70626C8E70726C6E70826A3
:1033B800C4E700BF003C0140000002400038024062
:1033C800001402402DE9F04F00228E46DFF82891C4
:1033D8004749DFF828A1DFF828B14FF0010808FABB
:1033E80002FC3CEA0E036BD1032302FA08F50468D9
:1033F80002F0070603FA05F522FA03F7B60024EAF5
:10340800050400EB870704603C6A23460F2404FA8E
:1034180006F623EA0606374B3E629842866826EA95
:10342800050686606FEA0C06476827EA0C074760BE
:10343800C76827EA050502F00307C56022F00305FF
:103448004FEA870705F1804504FA07F405F59C352E
:10345800D5F808C004EA0C0C37D003F5806398420D
:1034680035D003F58063984233D003F580639842E2
:1034780031D003F5806398422FD048452FD050456E
:103488002FD058452FD003F5805398422DD003F5FF
:10349800806398420CBF09230A23BB4063450FD1C0
:1034A800AB6823EA0404AC600B6833400B604B68DC
:1034B80033404B608B6833408B60CB681E40CE60D6
:1034C8000132102A89D1BDE8F08F0023E5E7434691
:1034D800E3E70223E1E70323DFE70423DDE705232E
:1034E800DBE70623D9E70723D7E70823D5E700BF9B
:1034F800003C014000000240001402400018024055
:10350800001C024003689A69910701D500229A625B
:103518009A69D20703D49A6942F001029A61704706
:1035280030B5039DC1F30901046845EA02426068A9
:103538001A43044B43EA55530A4320EA0300024363
:10354800626030BDFF63FF032DE9F041069F04462A
:10355800884616461D462268936938EA03030CBF5D
:1035680001230023B34201D000200BE06B1CF3D0F1
:1035780055B92023032084F84130002384F84230D1
:1035880084F84030BDE8F081FFF796FBC01BA842E5
:10359800E1D9EEE7036870B5044698690D4616460A
:1035A80010F0100012D170BD691C10D025B1FFF7C2
:1035B80083FB801B854209D22023032084F84130F5
:1035C800002384F8423084F84030ECE723689A6995
:1035D8009206E9D5102220252046DA61DD61FFF741
:1035E80091FF22680120536823F0FF7323F48B3383
:1035F80023F4FF7323F0010353600423636400235F
:1036080084F8415084F8403084F84230CBE770B5F4
:1036180004460D46164623689B699B0701D5002082
:1036280015E0324629462046FFF7B4FFB0B96A1CB8
:10363800F1D06DB9636C032043F020036364202349
:1036480084F84130002384F8423084F8403070BD5B
:10365800FFF732FB801BA842DDD9EBE70120F6E734
:103668002DE9F3411E461A4B044615460093F2B263
:103678004FF08073DDE90878FFF752FF2046424695
:103688003946FFF7C4FF40B1636C042B03D0032015
:1036980002B0BDE8F0810120FAE7012E23680CD1C1
:1036A800EDB20022802120469D623B46CDF8008085
:1036B800FFF74AFF0028EBD0E9E72A0A39462046F7
:1036C8009A624246FFF7A3FF0028DDD12368E7E7A7
:1036D800002000802DE9F3411E461A4B044615468A
:1036E8000093F2B20023DDE90878FFF719FF2046BE
:1036F80042463946FFF78BFF40B1636C042B03D079
:10370800032002B0BDE8F0810120FAE7012E23680A
:103718000CD1EDB20022402120469D623B46CDF8F7
:103728000080FFF711FF0028EBD0E9E72A0A3946A5
:1037380020469A624246FFF76AFF0028DDD12368D7
:10374800E7E700BF0020008070B504460D46164626
:1037580023689B699B0601D5002013E03246294661
:103768002046FFF717FFA0B96DB9636C032043F03B
:1037780020036364202384F84130002384F8423016
:1037880084F8403070BDFFF797FA801BA842DFD954
:10379800EBE70120F6E7704710B5044600284AD049
:1037A80090F8413003F0FF021BB980F84020FFF782
:1037B800F2FF242384F8413023681A6822F00102BA
:1037C8001A60626822F070621A619A6822F40042F4
:1037D8009A60D4E90221012924D142F400429A6076
:1037E8005A68002042F0007242F400425A60DA68D7
:1037F80022F40042DA60D4E904210A43A16942EACA
:103808000122DA60D4E907210A431A601A6842F0F3
:1038180001021A602023606484F84130206384F830
:10382800420010BD42F4044202299A60D8D14FF4F4
:1038380000625A60D4E70120F3E7704710B50446E8
:1038480098B10268242380F84130136823F00103FB
:103858001360FFF7F2FF0020606484F8400084F8EA
:103868004100206384F8420010BD0120FCE72DE9E7
:10387800F04F85B09B4604460F46BDF83C30924653
:10388800DDF84090039390F84130202B40F0A5805C
:103898000E9B1BB9012005B0BDE8F08F039B002BE0
:1038A800F8D090F84030012B00F09780012580F87F
:1038B8004050FFF701FA1923009006462A464FF4B4
:1038C80000412046FFF740FE8046C8B921236063C7
:1038D8005246394684F84130402384F842300E9BE2
:1038E800606420466362039BCDE9009663855B466E
:1038F800FFF7B6FE30B1636C84F84080042BC9D062
:103908000320C8E7638D9BB2FF2B10D9FF224FF02D
:1039180080730090228539462046FFF701FE324623
:1039280049462046FFF773FE48B1636CE6E7628DAF
:103938004FF00073009092B22285D2B2EBE7636A2F
:103948005A1C626222681B789362228D638D013A49
:10395800013B92B29BB222856385BAB9638D9BB253
:10396800A3B14B46802120460096FFF7EDFD0028C5
:10397800C6D1638D9BB2FF2B27D9FF224FF08073EE
:103988000090228539462046FFF7CAFD638D9BB219
:10399800002BC4D1324649462046FFF7D5FE002801
:1039A800C3D123682021D9615A6822F0FF7222F41A
:1039B8008B3222F4FF7222F001025A6084F841101F
:1039C80084F8400084F8420065E7628D4FF0007388
:1039D800009092B22285D2B2D4E702205BE70000C1
:1039E8002DE9F04F85B09B4604460F46BDF83C30A4
:1039F8009246DDF84090039390F84130202B40F038
:103A0800A8800E9B1BB9012005B0BDE8F08F039B71
:103A1800002BF8D090F84030012B00F09A80012557
:103A280080F84050FFF748F91923009006462A46C7
:103A38004FF400412046FFF787FD8046C8B922238E
:103A480060635246394684F84130402384F8423056
:103A58000E9B606420466362039BCDE900966385F4
:103A68005B46FFF737FE30B1636C84F84080042B67
:103A7800C9D00320C8E7638D9BB2FF2B364B44D9CE
:103A8800FF2200934FF08073228539462046FFF7C6
:103A980047FD4B460022042120460096FFF754FDBF
:103AA8000028E6D123685A6A636A591C61621A7051
:103AB800228D638D013A013B92B29BB222856385C8
:103AC800BAB9638D9BB2A3B14B46802120460096BC
:103AD800FFF73AFD0028CCD1638D9BB2FF2B1CD990
:103AE800FF224FF080730090228539462046FFF769
:103AF80017FD638D9BB2002BCBD132464946204639
:103B0800FFF722FE88B1636CB1E7628D00934FF036
:103B1800007392B22285D2B2B7E7628D4FF000737C
:103B2800009092B22285D2B2DFE723682021D961C2
:103B38005A6822F0FF7222F48B3222F4FF7222F0CC
:103B480001025A6084F8411084F8400084F8420069
:103B58005AE7022058E700BF0024008090F841008F
:103B680070472DE9F04104468AB000286CD090F8DF
:103B7800BD3303F0FF021BB980F8BC23FEF7E2FC5B
:103B8800032325466E4604F1040884F8BD3355F82E
:103B9800100B01F0E2FD0FCD0FC60FCD0FC695E853
:103BA800030004F1100586E8030098E80E00206879
:103BB800012601F091FD0021206801F0D4FD0021CB
:103BC80022462346084683F83C10A3F842100131E8
:103BD80083F83D600F2983F83F001865C3E9110099
:103BE80003F11C03EFD100231F4682F8FC31013397
:103BF80082F8FD710F2B82F8FF71C2F81072C2E9CA
:103C0800817702F11C02F0D10FCD6E460FC60FCDA1
:103C18000FC695E8030086E8030098E80E002068C0
:103C280001F0E2FD012384F8387084F8BD33636A3B
:103C3800012B02D1204600F0C1FC206802F0DCF81C
:103C480000200AB0BDE8F0810120FAE710B590F82D
:103C5800BC330446012B0CD0012380F8BC33006828
:103C680002F0BEF8206801F072FD002084F8BC0361
:103C780010BD0220FCE700002DE9F04F076887B06F
:103C880004463846D7F840B002F0F1F80290002810
:103C980040F05281206802F0BBF8002800F04C8107
:103CA800206802F0B5F8810704D52268536903F04B
:103CB80002035361206802F0ABF810F400250DD020
:103CC80007F5306A04F5017600252068D04602F031
:103CD800A3F80390039B002B40F03181206802F089
:103CE80097F840030BD5264607F51069002520688C
:103CF80002F09AF80390039B002B40F09C81206807
:103D080002F086F8002815DAD7F8043823F0010302
:103D1800C7F8043894F8F033012B40F022820021D0
:103D2800204684F8F01300F05CFC2268536903F025
:103D380000435361206802F06BF802050BD5D7F8F1
:103D48000838DB0702D52046FEF714FD22685369C0
:103D580003F400635361206802F05AF8060114D591
:103D680023685A6902F000625A6194F8F023002A25
:103D780040F0FB810121204684F8F0135B6DC3F30A
:103D88008303C4F8F43300F02CFC206802F040F8F8
:103D9800C00436D5D7F804381021206807F5006626
:103DA80023F00103736001F0F5FC07F510634FF68B
:103DB8007F3162680298824200F2DB81F36943F046
:103DC8000113F361236B002B00F0E781D6F88430F0
:103DD80043F00B03C6F88430736C43F00B03736431
:103DE800D7F8003804F57072217C23F4FE6320684C
:103DF800C7F8003802F05AF82268536903F4805370
:103E08005361206802F004F881041DD5206802F08F
:103E180032F82068C36823F47053C36001F09CFD36
:103E2800002840F0C3814FF400732268E0606361AA
:103E3800D36843F41053D3602046FEF788FC226809
:103E4800536903F400535361206801F0E1FFC3068E
:103E58002CD52268936923F010039361D7F820804A
:103E6800C8F3434308F00F06022B40F0188247F6C8
:103E7800F07318EA030F14D01C23C8F30A19384644
:103E880003FB06464A46D6F8081201F037FFD6F873
:103E98000822D6F814324A444B44C6F80822C6F819
:103EA80014322268936943F010039361206801F08B
:103EB800AFFF070707D52046FEF745FC2268536980
:103EC80003F008035361206801F0A2FFC60208D579
:103ED800E9B22046FEF75AFC2268536903F48013BE
:103EE8005361206801F094FF800208D5E9B22046AA
:103EF800FEF748FC2268536903F4001353612068F5
:103F080001F086FF410007D52046FEF743FC2268F2
:103F1800536903F080435361206801F079FF420739
:103F28000AD523685D686B0702D52046FEF736FC84
:103F3800226853682B43536007B0BDE8F08F039B9A
:103F4800DA0770D5E9B22068049101F075FF10F026
:103F5800010F814632D0B64B012204999B45C8F81F
:103F68000820226944D9012A11D1DAF8082013045B
:103F780003D54FF40042C8F80820D8F8102030685C
:103F8800C2F31202821A3261726810447060A94B3F
:103F98009B452FD1DAF8082010042BD54FF40042A6
:103FA800C8F808202169012908D13DB9D4F81022A0
:103FB80022B904F57072206801F078FF19F0080F33
:103FC80025D09C4B9B4519D1DAF80820120403D55B
:103FD8004FF40042C8F808202269012A11D1DAF802
:103FE800082013040DD54FF40042C8F8082008E053
:103FF800012AC2D02046FEF795FBD3E78C4B9B45A0
:10400800EAD82046FEF788FB0822C8F8082019F0ED
:10401800100F02D01022C8F8082019F0200F02D083
:104028002023C8F80830039B013508F120081C3606
:104038005B0803934EE6039BD90770D55FFA85FBAF
:104048002068594601F001FF10F0010F804622D088
:10405800012005F00F02D7F83438594600FA02F269
:1040680023EA0203C7F834382369C9F808008342F1
:10407800204602BFD6E911239B18B364FEF75BFB09
:104088002169012907D135B9236D23B904F5707267
:10409800206801F00BFF18F0080F02D00823C9F8B8
:1040A800083018F0100F02D01023C9F8083018F0A3
:1040B800400F02D04023C9F8083018F0020F02D090
:1040C8000223C9F8083018F0800F28D0D4F800A0CF
:1040D800D6E91432A3EB0208736C984528BF9846BA
:1040E80008F103039B0804930AF5106303EB4513D7
:1040F8000593059B049A9B699BB2934204D9D6E920
:104108001432934200D993B9B8F1000F07D10122B4
:10411800DAF83438AA4023EA0203CAF83438039B91
:1041280001351C3609F120095B080393E3E5A3EB8D
:104138000208736C5A465046984528BF984608F1BD
:1041480003039B080493237C00931FFA88F3B16C44
:1041580001F0F4FCB36C4344B364736D434473657A
:10416800C7E72046FEF70AFBDFE52046FEF702FB1D
:104178000BE69960203353F8202C22F4001243F800
:10418800202CC3F8E811D3F8E02122F40012C3F878
:10419800E021029A013202920BE6736943F02B0385
:1041A8007361336943F00B03336119E60323E3605A
:1041B8004023636100F078FC1F4B204A034493427C
:1041C800236804D8DA6842F47052DA6034E61C4A8C
:1041D8001C4902448A4203D8DA6842F46052F4E780
:1041E800A0F574021849A2F510528A4203D8DA6879
:1041F80042F45052E9E7A0F183721449A2F5E7426C
:104208008A4203D2DA6842F44052DEE7104A114982
:1042180002448A4203D8DA6842F43052D5E70E4A9B
:104228000E4902448A421BD2DA6842F42052CCE793
:104238000A30544F0A31544F405327FFFF340C00C3
:10424800401E1BFF3F420F007F4F120020D6130075
:1042580060B6E5FE5FE3160000D3CEFE40771B0094
:10426800184A194902448A4203D2DA6842F41052C1
:10427800ABE7A0F1B7721549A2F558528A4203D2AA
:10428800DA6842F40052A0E7114A124902448A420D
:10429800DA6834BF42F4E05242F4C05295E7062B84
:1042A8007FF4FFAD082204F570713846C8F30A1888
:1042B80001F024FD1C2303FB0646D6F814324344C0
:1042C800EDE500BFC05BB3FEC0912100207538004A
:1042D800E05459FEE09C410010B590F8BC23044618
:1042E800012A0BD0012280F8381080F8BC2300681E
:1042F80001F066FD002084F8BC0310BD0220FCE735
:1043080070B501F00F0611F0800F05464FF01C0044
:10431800C6EBC6044FEA84041FD004F13C0100FB3D
:1043280006500124294480F83D408A604A780E707E
:10433800CB7002B1CE80022B04BF00230B7195F81D
:10434800BC33012B12D00123286885F8BC3301F057
:1043580011FB002085F8BC0370BD04F5FE7100FB5D
:1043680006500024294480F8FD41DEE70220F3E7E7
:1043780010B5044601F00F0011F0800F4FF01C0239
:10438800C0EBC0034FEA830316D003F13C0102FBE4
:1043980000420123214482F83D30087094F8BC3370
:1043A800012B12D00123206884F8BC3301F020FBD4
:1043B800002084F8BC0310BD03F5FE7102FB004227
:1043C8000023214482F8FD31E7E70220F3E738B5FE
:1043D80001F00F051C2404FB050104FB050401F58D
:1043E800FE71C4F810320023C4F80822C4F814324D
:1043F80084F8FD3184F8FC5103690068012B08BF7B
:10440800C4F80C22DAB21DB901F022FB002038BD35
:1044180001F0A8FBFAE701F00F011C2303FB0100E0
:10442800B0F81402704738B501F00F051C2404FBDE
:10443800050104FB05043C3123650023A264636580
:10444800012384F83C5084F83D3003690068012B4F
:1044580008BFE264DAB21DB901F0FAFA002038BDEB
:1044680001F080FBFAE738B501F00F054368044610
:104478009D422CD811F0800F4FF01C001ED000FB7D
:104488000541012300FB05423C3182F83D30012300
:104498000D708B7094F8BC239A421AD0206884F867
:1044A800BC3301F039FC2DB904F57072217C206809
:1044B80001F0FCFC002084F8BC0338BD00FB01437C
:1044C8001A4603F5FE71002382F8FD31DFE701206B
:1044D800F3E70220F1E738B501F00F02436804461C
:1044E8009A422AD8C2EBC20311F0800F4FF01C0089
:1044F8004FEA830318D003F13C0100FB024001237B
:10450800214480F83D3000250A708D7094F8BC3342
:10451800012B14D00123206884F8BC3301F027FC58
:10452800284684F8BC5338BD03F5FE7100FB0240F1
:104538000023214480F8FD31E5E70120F3E702205C
:10454800F1E710B590F8BC330446012B10D00123D5
:1045580080F8BC330B06006807D501F00F0101F0A5
:1045680019F9002084F8BC0310BD01F025F9F8E71B
:104578000220F9E70068120470B5446A19B92243A9
:104588008262002070BD836A4D1E04EB1344002331
:104598005E1CDBB29D4205D83F31224300EB81000F
:1045A8004260EEE7403300EB83035B6804EB13449F
:1045B8003346EDE70368002059627047026800211E
:1045C800012380F8F013C0F8F8330846936943F0E4
:1045D80000639361536D43F0805343F003035365C5
:1045E800704770472DE9F341044618B9012002B01D
:1045F800BDE8F0810368D80710D42368990761D40F
:104608002368190700F1A88023685A0700F1C980B8
:10461800A269002A40F032810020E8E7954B9A68A9
:1046280002F00C02042A07D09A6802F00C02082A49
:104638000AD15A68520207D58E4B1B689B03DCD5FA
:104648006368002BD9D1D1E76268B2F5803F11D1F8
:104658001A6842F480321A60FEF72EFB854E054632
:1046680033689F03C9D4FEF727FB401B6428F7D99A
:104678000320BCE77F4D2B6892B923F480332B606D
:104688002B6823F480232B60FEF716FB06462B6865
:104698009803B2D5FEF710FB801B6428F7D9E7E72B
:1046A800B2F5A02F07D143F480232B602B6843F485
:1046B80080332B60D0E723F480332B602B6823F4FE
:1046C8008023F6E76B4B9A6812F00C0F07D09A68B4
:1046D80002F00C02082A12D15A6851020FD4654B15
:1046E8001A68920703D5E268012A7FF47FAF1A6837
:1046F800216922F0F80242EAC1021A6080E7E26802
:10470800C2B11A685B4D42F001021A60FEF7D4FA92
:1047180006462B689F0707D52B68226923F0F80304
:1047280043EAC2032B606BE7FEF7C6FA801B022838
:10473800EFD99DE71A684F4E22F001021A60FEF782
:10474800BBFA0546336898077FF55AAFFEF7B4FA07
:10475800401B0228F6D98BE76369464D83B16B6F1E
:1047680043F001036B67FEF7A7FA06466B6F9B07DA
:104778003FF54AAFFEF7A0FA801B0228F6D977E783
:104788006B6F23F001036B67FEF796FA06466B6FB3
:104798009F077FF539AFFEF78FFA801B0228F6D9FD
:1047A80066E7344B1A6CD00027D41A6C012742F004
:1047B80080521A641B6C03F080530193019B2E4DA9
:1047C8002B68D9051BD5A3682A4D012B27D12B6F40
:1047D80043F001032B6741F28838FEF76DFA254E46
:1047E8000546336F9B073FD5002F3FF411AF214A91
:1047F800136C23F0805313640AE70027DFE72B6864
:1048080043F480732B60FEF757FA06462B68DA05E7
:10481800D9D4FEF751FA801B6428F7D928E7ABB939
:104828002B6F41F2883823F001032B672B6F23F09D
:1048380004032B67FEF740FA06462B6F9807D3D57B
:10484800FEF73AFA801B4045F7D911E7052B2B6F85
:1048580003D143F004032B67B9E723F001032B6767
:104868002B6F23F00403B5E7FEF726FA401B4045FB
:10487800B7D9FDE60038024000700040244DAB680F
:1048880003F00C03082B3FF4B1AE2B68022A23F087
:1048980080732B602FD1FEF70FFA06462B6899011B
:1048A80023D4D4E907321343626A43EA8213E26AE3
:1048B80043EA0263226B43EA0273A26A5208013A8E
:1048C80043EA02436B602B6843F080732B60FEF76A
:1048D800F3F90F4D04462B689A013FF59DAEFEF79C
:1048E800EBF9001B0228F6D9C2E6FEF7E5F9801BB2
:1048F8000228D3D9BCE6FEF7DFF904462B689B01F2
:104908007FF58AAEFEF7D8F9001B0228F6D9AFE684
:1049180000380240134908B58B6803F00C03042BD8
:104928001BD0082B1BD14A684B68496802F03F022C
:1049380013F48003C1F388111ABF0B4800230B48F6
:10494800A1FB0001FBF774FC064B5B68C3F3014352
:1049580001335B00B0FBF3F008BD0348FCE70348F4
:10496800FAE700BF0038024040787D010024F400D7
:104978002DE9F0410D46044610B90120BDE8F0814B
:10498800454A136803F00F038B4227D32268970721
:104998002FD4D00743D4404A136803F00F03AB4227
:1049A80066D8226851076FD4130707D53B4A216997
:1049B800936823F4604343EAC1039360FFF7AAFFB7
:1049C800364B374A9B68C3F30313D35CD840354B47
:1049D80018600020FEF730F90020CFE7136823F0B5
:1049E8000F030B431360136803F00F038B42C4D10A
:1049F800CCE712F0040F294B03D0996841F4E05139
:104A08009960160703D5996841F460419960234974
:104A1800A0688B6823F0F00303438B60B9E76168F3
:104A28001E4B01291A681BD112F4003FA5D09A68C1
:104A380041F28838194F22F003020A439A60FEF7C0
:104A48003BF90646BB68626803F00C03B3EB820FC0
:104A5800A1D0FEF731F9801B4045F3D903208DE73B
:104A6800022902D112F0007FE0E712F0020FDDE721
:104A7800136823F00F032B431360136803F00F032D
:104A8800AB427FF47AAF8CE70449E0688B6823F483
:104A9800E05303438B6087E7003C02400038024044
:104AA800F465000804010020014B1868704700BF36
:104AB8000401002003682DE9F74313F001060446BA
:104AC8000BD0BA4A916821F400019160466B916855
:104AD8003143B6FA86F67609916013F4002512D0B0
:104AE800B249E56BD1F88C20B5F5801F22F440124D
:104AF80008BF012642EA050216BFB5FA85F500256A
:104B08006D09C1F88C20D90210D5A848216CD0F8BD
:104B18008C20B1F5800F22F4400242EA0102C0F86D
:104B28008C2000F0A881002908BF012513F0807FA0
:104B380018BF01269A0631D59C4B9D4F1A6C42F03E
:104B480080521A641B6C03F080530193019B3B68ED
:104B580043F480733B60FEF7AFF880463B68DB05A3
:104B680040F18B81914F3B6F13F4407340F090817B
:104B7800236B03F44072B2F5407F8C4A40F0AE815B
:104B8800916823F0704021F4F81120F4407001433B
:104B98009160C3F30B03116F0B4313672368DA06A5
:104BA8000CD5824AD2F88C1021F08071C2F88C1092
:104BB800D2F88C10A06B0143C2F88C105F0408D5A2
:104BC8007A49606ED1F8902022F440320243C1F84D
:104BD8009020180408D57549A06ED1F8902022F4C9
:104BE80040220243C1F89020D90308D56F49E06EEE
:104BF800D1F8902022F440120243C1F890209A0381
:104C080008D56A49206FD1F8902022F44002024367
:104C1800C1F890205F0608D56449606CD1F89020EF
:104C280022F003020243C1F89020180608D55F4914
:104C3800A06CD1F8902022F00C020243C1F8902019
:104C4800D90508D55949E06CD1F8902022F03002F6
:104C58000243C1F890209A0508D55449206DD1F82F
:104C6800902022F0C0020243C1F890205F0508D5C9
:104C78004E49606DD1F8902022F440720243C1F889
:104C88009020180508D54949A06DD1F8902022F444
:104C980040620243C1F89020D90408D54349E06D29
:104CA800D1F8902022F440520243C1F890209A048F
:104CB80008D53E49206ED1F8902022F440420243A4
:104CC800C1F890205F0208D53849A06FD1F890202C
:104CD80022F080620243C1F8902098020CD5334834
:104CE800E16FD0F89020B1F1006F22F0006208BFA8
:104CF80001250A43C0F8902013F0080F18BF0125BA
:104D0800590308D52949606FD1F8902022F04072E4
:104D18000243C1F890201A0209D52449D4F880002A
:104D2800D1F8902022F080520243C1F890205F0110
:104D380009D51E49D4F88400D1F8902022F00052F9
:104D48000243C1F89020180109D51849D4F8880001
:104D5800D1F88C2022F000720243C1F88C20D900CF
:104D680040F13E81114A012ED4F88C10D2F88C30D3
:104D780023F0806343EA0103C2F88C3000F0B2806C
:104D8800012D76D1094D2B682E4623F080532B60D8
:104D9800FDF792FF07462B689B0000F12E812268E1
:104DA800150307D5E36B4BB104E000BF00380240A0
:104DB80000700040D0021CD5236CD3B9D6F88830D7
:104DC800D6F8881003F4403301F0E0410B436169E1
:104DD80043EA8113A16943EA0163C6F88830D6F82B
:104DE8008C30A16A23F4F853013943EA0123C6F849
:104DF8008C30910215D5E36FB3F1006F11D186495C
:104E0800D1F88830D1F8880003F0706300F0E040F2
:104E18000343606943EA8013206A43EA0043C1F808
:104E28008830120719D57C4AD2F88810D2F8883011
:104E380001F0706103F440330B43616943EA811365
:104E4800E16943EA0173C2F88830D2F88C30E16A2C
:104E580023F440330B43C2F88C306F4C236843F083
:104E680080532360FDF728FF054623689B0040F127
:104E7800CB80002009E0012658E6FDF71DFFA0EBD6
:104E8800080064287FF66AAE032003B0BDE8F0830B
:104E9800226B02F440729A423FF46AAE3B6F3A6F5B
:104EA80023F4407342F480323A673A6F22F4803236
:104EB8003A673B673B6FD8077FF55AAEFDF7FCFEB4
:104EC80041F2883980463B6F99073FF551AEFDF7AF
:104ED800F3FEA0EB08004845F5D9D5E7916821F421
:104EE800F81155E64C4E336823F080633360FDF7C4
:104EF800E3FE074633681A0178D42268D30712D52F
:104F0800636B83B9D6F88430D6F8841003F4403341
:104F180001F070610B43616843EA8113A16843EAB9
:104F28000173C6F88430170303D5E36BB3F5801F0C
:104F380005D0D6021ED5236CB3F5800F1AD1364999
:104F4800D1F88430D1F8840003F4403300F0E04015
:104F58000343606843EA8013E06843EA0063C1F8EA
:104F68008430D1F88C00636A20F01F00013B0343B2
:104F7800C1F88C30D00111D52749D1F88430D1F847
:104F8800840003F0706300F0E0400343606843EA84
:104F98008013206943EA0043C1F8843091010DD59C
:104FA800236962681B0443EA8213E26843EA0263E6
:104FB800A26843EA0273184AC2F88430164E33686E
:104FC80043F080633360FDF777FE074633681A01C4
:104FD8003FF5D6AEFDF770FEC01B6428F6D953E73F
:104FE800012E3FF47FAFB3F1007FC7E6FDF764FE03
:104FF800C01B64287FF67EAF46E7FDF75DFEC01B49
:1050080064287FF6C8AE3FE7FDF756FE401B6428CC
:105018007FF62BAF38E700BF003802405C4B0360D7
:105028005C4BD3F88420C2F388124260D3F8842002
:10503800C2F301420261D3F88420C2F30362C26062
:10504800D3F88420C2F302728260D3F88820C2F3B6
:1050580088124261D3F88820C2F301420262D3F871
:105068008820C2F303628261D3F88820C2F30272F7
:10507800C261D3F88C2002F01F024262D3F88C2060
:10508800C2F304228262D3F88C20C2F30142C262C6
:10509800D3F88C2002F44012C263D3F88C2002F4B7
:1050A800400202649A6802F400024263D3F8902036
:1050B80002F440324266D3F8902002F4402282661D
:1050C800D3F8902002F44012C266D3F8902002F47C
:1050D80040020267D3F8902002F003024264D3F83A
:1050E800902002F00C028264D3F8902002F0300283
:1050F800C264D3F8902002F0C0020265D3F8902071
:1051080002F440724265D3F8902002F4406282654E
:10511800D3F8902002F44052C265D3F8902002F4EC
:1051280040420266D3F8902002F040724267D3F8FA
:10513800902002F080628267D3F8902002F000622B
:10514800C267D3F8902002F08052C0F88020D3F8CC
:10515800902002F00052C0F88420D3F88C2002F08E
:105168000072C0F88820D3F88C2002F08062C0F862
:105178008C2099681A6F01F4F81102F440720A43FE
:105188000263D3F88C3003F080738363704700BFE9
:10519800F1FFFF1C00380240B0F5002F31D1354B2C
:1051A800D3F88C2002F44012B2F5001F5FD006D865
:1051B800002A39D0B2F5801F51D000207047B2F5CF
:1051C800401FFAD15B682C4813F4800F2B4B08BFA3
:1051D80018467047284B274AB3FBF0F3D2F88410DF
:1051E800D2F88400C0F388105843C1F30363B0FBBE
:1051F800F3F0D2F88C3003F01F030133B0FBF3F067
:105208007047B0F5801FD8D11A4BD3F88C2002F420
:105218004002B2F5000F2AD003D82AB1B2F5800FA8
:10522800CAE7B2F5400FCCE75A6858685202114AEB
:1052380000F03F0054BF114B0F4BD2F88810B3FB5E
:10524800F0F3D2F88800C0F388105843C1F3036321
:10525800B0FBF3F0D2F88C30C3F30423CDE75A68DF
:105268005868530200F03F00B4D4044BB3E7044835
:10527800704700BF0038024040787D010024F400E8
:105288000080BB000129016B426814BF0123092378
:10529800082905D122F00201012908BF43F01003B3
:1052A800023A012A94BF43F0600043F004007047BB
:1052B8000D4B01681A6841F65833B2FBF3F20B68DC
:1052C800920023F480330B60013A07D2D0F8803083
:1052D80043F04003C0F88030032070470B6813F494
:1052E8008033F1D118467047040100207047000050
:1052F80070B50446002800F0C48090F87D3003F0B3
:10530800FF021BB980F87C20FFF7F0FF022320463C
:1053180084F87D30FFF7CCFFE368012B00F0A08014
:10532800022B14BF00232023A268022A00F09C80CD
:10533800032A00F09780012A14BF00254FF48065E6
:10534800226851498A4203D05048824240F08F80F7
:105358004F480360E36913B38A4203D04B4B9A4228
:1053680040F087804FF40020FFF716FF2368494A72
:10537800934202D02032934203D14FF48010FFF7BA
:105388000BFF0A22E36950435B02B0FBF3F0B0FB6A
:10539800F2F302FB1300092808BF01332362636894
:1053A800E26B33F0020166D1012A18BF4FF4007195
:1053B8002268394816683040266B3343666B1060A4
:1053C8003343A66B10683343666A33432669334315
:1053D800666933430343206A43EA0053A06A2B43B8
:1053E8000B431360536823F4604323F00F035360A7
:1053F800A36951680343E06A0343A06C0B435360FD
:10540800264B91680B409360236D91680343E06CD1
:1054180003430B43216C01390B43616C013943EAA7
:1054280001239360D36823F47D6323F00F031B04E7
:105438001B0CD360D168D4E91530034300200B431B
:10544800216E43EA0143E16D013943EA0123D36048
:105458000123C4F8800084F87C0084F87D3070BD96
:10546800102361E743F001034FF4006568E70C4837
:105478006FE700207AE7012A14BF00214FF400717A
:1054880096E70120EBE700BF04580140245801408B
:1054980000580140045C014010C005FF0080F8FF7F
:1054A800005C0140704738B50446D0B1022300259E
:1054B8004FF0FF3280F87D3003681D619A61FFF775
:1054C800F7FE22682046536843F008035360FFF74D
:1054D800E9FF2846C4F8805084F87C5084F87D5051
:1054E80038BD0120FCE738B590F87C300446012B24
:1054F80041D00268012580F87C501368C06E23F4FF
:105508000033136020BB0025206F88B194F87D30EC
:10551800222B0DD1FDF761FD50B1236F5B6D802B00
:1055280006D0D4F88030012543F08003C4F88030D9
:105538002046FFF7BDFE2268536843F00803536016
:10554800012384F87D30002384F87C30284638BD58
:1055580094F87D30122BD6D1FDF73FFD0028D2D02C
:10556800E36E5B6D802BCED0D4F8803043F080039F
:10557800C4F88030C8E70225E8E7000070B5134694
:10558800044600293FD0002B3DD090F87D0001282B
:10559800C5B23AD194F87C00012836D000261222F0
:1055A800E06EC4F8806084F87D20194A84F87C5045
:1055B8006166A4F86830A4F86A300264154AC263C8
:1055C800154AC0E9132622681C32FDF7C9FC18B138
:1055D80084F87C60284670BD25682B68DB0303D4FB
:1055E8002B6843F480332B6000212046FFF74AFEE6
:1055F8002B69184328612B6843F400332B6000257E
:1056080084F87C50E6E70125E4E70225E2E700BFDD
:105618005D560008255600086756000838B5036827
:10562800846B196811F4807110D125682046A4F89C
:105638006A102B6823F400332B60FFF723FE2B69D5
:1056480023EA00000123286184F87D302046FCF716
:105658009FFB38BD806B08B5FCF79EFB08BD10B5F5
:10566800846BD4F8803043F08003C4F88030E36E54
:105678005B6D012B03D0236F5B6D012B0DD122686D
:105688002046136823F400331360FFF711FE01234B
:1056980084F87D300023A4F86A302046FCF722FD08
:1056A80010BD90F87D0070470A4B013B0FD002698E
:1056B800002AFADA0369074A43F001030361013A51
:1056C80005D0036913F00103F9D118467047032088
:1056D800704700BF410D030084B038B505AD0446DE
:1056E80085E80E000A9B012B27D1836B23F48033B6
:1056F8008363C36823F4840323F04003C360C3684F
:1057080023F44013C360119B012B03D1C36843F4F6
:105718008013C3602046FFF7C7FF089B012B07D102
:10572800A36843F00603A360A36843F02003A360C3
:105738000020BDE8384004B07047C36843F0400318
:10574800C360FFF7B1FF4FF48033A363E5E78368D5
:1057580043F00103836000207047836823F001034E
:1057680083600020704708B5C368012923F0C0434F
:10577800C36008D1C36843F00053C3603220FDF70B
:10578800A1FA002008BD19B9C36843F08043F4E7C3
:105798000120F7E78901074A41F020010161013A38
:1057A80005D0036913F02003F9D118467047032088
:1057B800704700BF410D03001023064A0361013AF8
:1057C80005D0036913F01003F9D118467047032078
:1057D800704700BF410D0300D0F800381943C0F8E6
:1057E800001800207047000084B02DE9F8430446F3
:1057F80009A8884680E80E0000230E99139E1D46CE
:10580800DDE90B2703F14000013304EB80000F2B87
:105818004560F7D1A36B43F40013A3635EB9A36B90
:1058280023F40013A363236843F040032360236831
:1058380043F0800323600023012904F50065C4F8C0
:10584800003ED4F80038C4F8003858D1002A54D1A2
:1058580000212046FFF7C0FF10212046FFF79AFFDE
:105868002046FFF7A9FF002304F510624FF090408F
:1058780019464FF0006C4FF67F3E2B616B61EB6170
:10588800434540D1002204F530634FF090404FF07B
:10589800006C11464FF67F3E424546D12B69012FD9
:1058A80023F480732B6107D1294B2B632B6B43F4B3
:1058B800803343F003032B630023A3616FF080431D
:1058C80063611FB9A36943F01003A361A269214B67
:1058D8001343A3610F9B1BB1A36943F00803A361A2
:1058E800012E05D1A36943F0804343F00403A3616B
:1058F8000020BDE8F84304B070470121A9E7032957
:10590800A4D00321A5E7D2F80090B9F1000F0ADA74
:105918003BB9C2F800C011610133C2F808E0203277
:10592800AEE71060F7E71160F5E7D3F80090B9F13A
:10593800000F0ADA3AB9C3F800C019610132C3F896
:1059480008E02033A8E71860F7E71960F5E700BF1B
:105958000001800000383C80D0F8083813F00600B9
:1059680007D09B0704D4042814BF002002207047E6
:105978000320704730B50D78012400F5006205F06A
:105988000F0300EB45109C404B78012BD36918D1CD
:105998001C43D461D0F800391A0410D48A68D0F8AE
:1059A8000049C2F30A03CA78234343EA824343EA1D
:1059B800855343F0805343F40043C0F80039002076
:1059C80030BD43EA0444D461D0F8003B1B04F6D44C
:1059D8008B68D0F8002BC3F30A031343CA7843EA51
:1059E800824343F0805343F40043C0F8003BE6E7AA
:1059F80030B50C7800F500624978012304F00F05F2
:105A080000EB44100129D16B03FA05F30ED121EA0A
:105A18000301D163D16921EA0303D3610A4BD0F8AA
:105A280000291340C0F80039002030BD21EA0341A5
:105A3800D163D16921EA0343D361044BD0F8002B29
:105A48001340C0F8003BEFE7007833EC0078F3EF41
:105A58004B78DFF8E4C0012BF0B50D784E6900EB08
:105A68004514344F43D104F51063BEB91869012AAF
:105A780000EA07001861186940F4002018611869E5
:105A880000EA0C00186101D10A695A61D4F800399A
:105A980043F00443C4F800390020F0BDD3F810E007
:105AA8000EEA0C0CC3F810C0D3F810C00CEA0707B4
:105AB8001F618F68B7421E6938BF4F6146F40026E0
:105AC8004F69012A1E61C7F31206D3F810C046EACF
